:020000040800F2
:10000000A8440020D102000869220008331F00081C
:100010006522000801040008D52A0008000000003D
:100020000000000000000000000000000D020008B9
:100030000504000800000000690200087922000899
:10004000EB020008EB020008EB020008EB020008DC
:10005000EB0200086B220008EB020008EB0200082C
:10006000EB020008EB020008EB020008EB020008BC
:10007000EB020008EB020008EB020008EB020008AC
:10008000EB020008EB020008EB020008EB0200089C
:10009000EB020008EB020008EB020008070400086E
:1000A000EB020008F5230008EB020008EB02000851
:1000B000EB020008EB020008EB020008EB0200086C
:1000C000EB020008EB020008EB020008EB0200085C
:1000D000EB020008EB020008A52A0008B52A000878
:1000E000EB020008EB020008EB020008EB0200083C
:1000F000EB020008EB020008EB020008EB0200082C
:10010000EB020008EB020008EB020008EB0200081B
:10011000DD240008ED240008EB020008EB020008D3
:10012000EB020008EB020008EB020008EB020008FB
:10013000EB020008EB020008EB020008EB020008EB
:10014000EB020008EB020008EB020008EB020008DB
:10015000EB020008EB020008EB020008C52A0008C9
:10016000EB020008EB020008EB020008EB020008BB
:10017000EB020008EB020008EB02000800000000A0
:10018000EB020008EB020008EB020008EB0200089B
:10019000EB020008EB020008EB020008EB0200088B
:1001A000EB020008EB020008EB020008EB0200087B
:1001B000EB020008EB020008EB020008EB0200086B
:1001C000EB020008EB02000800000000EB02000850
:1001D000EB020008EB020008EB020008EB0200084B
:1001E000EB020008EB020008EB020008EB0200083B
:1001F000EB020008EB020008DFF80CD000F0EEF88C
:10020000004800472F2B0008A84400202D4B1968F8
:100210000868B0E8F04F80F30988BFF36F8F4FF0A4
:10022000000080F311887047000000000848006853
:10023000006880F308884FF0000080F3148862B6ED
:1002400061B6BFF34F8FBFF36F8F00DF00BF00BFFA
:1002500008ED00E0DFF80C00016841F47001016076
:10026000704700BF88ED00E0EFF30980BFF36F8FA8
:10027000144B1A681EF0100F08BF20ED108A20E9F9
:10028000F04F106009B44FF0500072B680F311883F
:10029000BFF34F8FBFF36F8F62B603F0E9F84FF0F3
:1002A000000080F3118809BC19680868B0E8F04FB5
:1002B0001EF0100F08BFB0EC108A80F30988BFF35E
:1002C0006F8F704714000020EFF305807047000027
:1002D0000648804706480047FEE7FEE7FEE7FEE7E0
:1002E000FEE7FEE7FEE7FEE7FEE7FEE791230008F4
:1002F000F90100082DE9F05F0546002092469B4673
:1003000088460646814640241BE02846414647462B
:10031000224600F053F853465A46C01A914110D372
:1003200011461846224600F03AF82D1A67EB0108EC
:100330004F4622460120002100F031F817EB00095A
:100340004E41201EA4F10104DFDC484631462A4616
:100350004346BDE8F09F40EA01039B0703D009E054
:1003600008C9121F08C0042AFAD203E011F8013BA1
:1003700000F8013B521EF9D27047D2B201E000F8FA
:10038000012B491EFBD270470022F6E710B5134639
:100390000A4604461946FFF7F0FF204610BD202A02
:1003A00004DB203A00FA02F1002070479140C2F1CC
:1003B000200320FA03F3194390407047202A04DBFE
:1003C000203A21FA02F00021704721FA02F3D040CE
:1003D000C2F120029140084319467047064C074D70
:1003E00006E0E06840F0010394E807009847103405
:1003F000AC42F6D3FFF704FF0039000820390008AB
:1004000000BFFEE7704710B54FF4807000F01CF895
:100410004FF4007000F018F810BD7047014691F8D5
:100420003500022803D08020486501207047052050
:1004300081F835000868006820F001000A68106043
:100440000020F3E77047000010B504460448006838
:10045000204020B1024804602046FFF7F3FF10BDA2
:10046000143C0140F8B502460B460021002500244B
:10047000002000BFE4E0012606FA01F51E6806EA46
:100480000504AC4271D15E68022E02D05E68122E65
:1004900013D1CF0802F1200656F827004E07F70EB9
:1004A0000F26BE40B0434F07FF0E1E69BE403043CB
:1004B000CF0802F1200646F8270010684F000326F7
:1004C000BE40B0431E7906F003064F00BE403043E5
:1004D00010605E68012E08D05E68022E05D05E684E
:1004E000112E02D05E68122E13D190684F000326A1
:1004F000BE40B0434F00DE68BE403043906050685D
:1005000001268E40B0431E79C6F300168E4030435C
:100510005060D0684F000326BE40B0434F009E6835
:10052000BE403043D0605E6806F08056B6F1805F12
:10053000A8D100BF444E366846F48046424F3E6024
:100540003E46366806F48046009600BF00BF3F4E28
:100550008F0856F827008E07370F0F26BE40B0438E
:100560003B4EB24202D100262EE068E0394EB24244
:1005700001D1012628E0384EB24201D1022623E003
:10058000364EB24201D103261EE0354EB24201D1B1
:10059000042619E0334EB24201D1052614E0324E52
:1005A000B24201D106260FE0304EB24201D10726F9
:1005B0000AE02F4EB24201D1082605E02D4EB2428C
:1005C00001D1092600E00A268F073F0FBE403043C5
:1005D0001E4E8F0846F82700274E3068A0435E68FD
:1005E00006F48036B6F5803F00D12043224E3060BD
:1005F000361D3068A0435E6806F40036B6F5003F4D
:1006000000D120431C4E361D3060361D3068A0439B
:100610005E6806F48016B6F5801F00D12043164EA2
:1006200008363060361D3068A0435E6806F4001658
:10063000B6F5001F00D120430F4E0C363060491C28
:100640001029FFF418AFF8BD4438024008380140C3
:10065000000002400004024000080240000C02407A
:10066000001002400014024000180240001C02402A
:100670000020024000240240003C01400AB1816198
:1006800001E00B0483617047014800687047000077
:100690000400002003480068034909780844014920
:1006A00008607047040000200C00002010B50320F3
:1006B00000F0C8F8002000F005F800F047F800202E
:1006C00010BD000070B588B0044600250026002249
:1006D0002146192000F078F8192000F065F800BFD5
:1006E0001648006840F00100144908600846006898
:1006F00000F00100019000BF00BF02A903A800F0B4
:1007000071FD00F0A7FD45000D48B5FBF0F0461E59
:100710000C480D49086040F2E7310B48C160466063
:1007200000210161816001F05CF820B9064801F008
:1007300073F808B070BD0120FBE7000044380240A8
:1007400040420F00000001407403002008B500BFC4
:100750001448006840F0805012490860084600685C
:1007600000F08050009000BF00BF00BF081D00686F
:1007700040F48040091D08600846006800F480408D
:10078000009000BF00BF00220F21901E00F01CF857
:1007900000220521084600F017F8052000F004F8B3
:1007A00008BD00004038024001460846002809DB29
:1007B00000F01F0301229A4043099B0003F1E0234C
:1007C000C3F8002100BF70472DE9F05F80460D4659
:1007D0001646002702F080F9074639462A46334676
:1007E00001F00700C0F1070ABAF1040F02D94FF077
:1007F000040A01E0C0F1070AD14600F1040ABAF187
:10080000070F02D24FF0000A01E0A0F1030AD4461C
:100810004FF0010A0AFA09FAAAF1010A0AEA020AE1
:100820000AFA0CFA4FF0010B0BFA0CFBABF1010BBF
:100830000BEA030B4AEA0B042146404602F054F946
:10084000BDE8F09F00BF00F00702064B19684FF6A5
:10085000FF031940044B0B4343EA0221014B19608B
:1008600000BF70470CED00E00000FA0538B5002429
:1008700000BF2048006840F080501E4908600846CC
:10088000006800F08050009000BF00BF1A48006868
:1008900040F4803018490860FFF7F6FE044607E090
:1008A000FFF7F2FE001BB0F57A7F01D9032038BDB7
:1008B0001148406800F48030B0F5803FF0D10E4818
:1008C000006840F400300C490860FFF7DDFE044684
:1008D00007E0FFF7D9FE001BB0F57A7F01D90320AE
:1008E000E5E70548406800F40030B0F5003FF0D17E
:1008F0000020DCE740380240007000402DE9F8435A
:100900000446002600250027A846A946207800F0C6
:10091000010088B100BFFE48006820F40000FC49D7
:10092000086008460068616B0843F949086000BF29
:10093000606B08B94FF00108206800F40020B0F5A2
:10094000002F13D1F2488430006820F44010E16B8E
:100950000843EF4984310860E06BB0F5801F01D196
:100960004FF00108E06B08B94FF00109206800F46E
:100970008010B0F5801F13D1E5488430006820F462
:100980004000216C0843E24984310860206CB0F5D6
:10099000800F01D14FF00108206C08B94FF0010918
:1009A000206800F08070B0F1807F01D14FF0010825
:1009B000207800F02000202870D100BFD4483830C3
:1009C000006840F08050D24938310860084600681D
:1009D00000F08050009000BF00BFCE48006840F497
:1009E0008070CC490860FFF74FFE064607E0FFF72E
:1009F0004BFE801B642802D90320BDE8F883C5485C
:100A0000006800F480700028F1D0C14868300068A8
:100A100000F4407585B3208E00F44070A8422BD0BE
:100A2000BB486830006820F44075B94868300068F9
:100A300040F48030B649683108600846006820F408
:100A40008030086008460560006800F0010098B139
:100A5000FFF71AFE064608E0FFF716FE801B41F27C
:100A60008831884201D90320C7E7A9486830006867
:100A7000C0F340000028EFD000BF208E00F440708B
:100A8000B0F5407F0BD1A248006820F4F810A24ACC
:100A9000216B114008439E49086006E010E09C4825
:100AA000006820F4F8109A49086099486830006896
:100AB000218EC1F30B01084395496831086000BFDE
:100AC000207800F01000102810D100BF904884302A
:100AD000006820F080708E49843108600846006804
:100AE000A16B08438A498431086000BF208800F464
:100AF0008040B0F5804F09D185488830006820F4E7
:100B00004030616E0843824988310860208800F4D3
:100B10000040B0F5004F09D17D488830006820F4CE
:100B20004020A16E08437A4988310860206800F4AB
:100B30008030B0F5803F09D175488830006820F4D6
:100B40004010E16E0843724988310860206800F463
:100B50000030B0F5003F09D16D488830006820F4BE
:100B60004000216F08436A4988310860207800F00E
:100B70004000402809D166488830006820F0030012
:100B8000616C0843624988310860207800F0800079
:100B9000802809D15E488830006820F00C00A16CE4
:100BA00008435B4988310860208800F48070B0F504
:100BB000807F09D156488830006820F03000E16C11
:100BC0000843534988310860208800F40070B0F56C
:100BD000007F09D14E488830006820F0C000216DA8
:100BE00008434B4988310860208800F48060B0F5E4
:100BF000806F09D146488830006820F44070616DEC
:100C00000843434988310860208800F40060B0F54B
:100C1000006F09D13E488830006820F44060A16D23
:100C200008433B4988310860208800F48050B0F5C3
:100C3000805F09D136488830006820F44050E16D6B
:100C40000843334988310860208800F40050B0F52B
:100C5000005F09D12E488830006820F44040216EA2
:100C600008432B4988310860206800F48000B0F503
:100C7000800F09D126488830006820F08060A16F7D
:100C80000843234988310860206800F40010B0F55B
:100C9000001F0FD11E488830006820F00060E16F0F
:100CA00008431B4988310860E06FB0F1006F01D143
:100CB0004FF00109207800F00800082801D14FF01A
:100CC0000109206800F48020B0F5802F09D1104878
:100CD0008830006820F04070616F08430C4988310B
:100CE0000860206800F40000B0F5000F0AD1084841
:100CF0008830006820F08050D4F880100843044900
:100D000088310860206800F08060B0F1806F05E0F5
:100D10000838024000700040FFFCFF0F08D1CC48AB
:100D2000006820F00050D4F884100843C8490860D7
:100D3000206800F00060B0F1006F0AD1C448001FC5
:100D4000006820F00070D4F888100843C049091FDB
:100D50000860206800F08050B0F1805F0AD1BC4884
:100D6000001F006820F08060D4F88C100843B84958
:100D7000091F0860B8F1010F03D02068B0F1007FAF
:100D80007ED1B3489038006820F08060B049903937
:100D90000860FFF779FC064606E0FFF775FC801B4C
:100DA000642801D9032028E6A94890380068C0F3D8
:100DB000C0600028F1D1207800F00100B8B1606B6C
:100DC000A8B9A3480C380068C0F30145A0480C3806
:100DD0000068C0F303676068800140EA054040EAAC
:100DE0000761207A41EA007099490C39086020684F
:100DF00000F40020B0F5002F03D1E06BB0F5801FA8
:100E000009D0206800F48010B0F5801F24D1206C38
:100E1000B0F5800F20D18E480C380068C0F3014532
:100E20008B480C380068C0F302776068800140EAA4
:100E30000541207B41EA006040EA077084490C3993
:100E400008608348001F006820F01F00616A491E87
:100E500008437F49091F0860206800F08070B0F1E6
:100E6000807F17D17A480C380068C0F30365784852
:100E70000C380068C0F3027760688101208A00E0C6
:100E800036E041EA004040EA056040EA07707049F8
:100E90000C390860206800F00070B0F1007F0DD1BF
:100EA00060688101208A41EA0041207B41EA0061BB
:100EB000207A41EA007066490C390860644890382D
:100EC000006840F08060624990390860FFF7DCFB01
:100ED000064606E0FFF7D8FB801B642801D90320F3
:100EE0008BE55B4890380068C0F3C0600028F1D003
:100EF000B9F1010F7ED156489038006820F080503B
:100F0000534990390860FFF7BFFB064606E0FFF73C
:100F1000BBFB801B642801D903206EE54C48903848
:100F20000068C0F340700028F1D1206800F4002070
:100F3000B0F5002F01D1E06B38B1206800F48010CB
:100F4000B0F5801F22D1206C00BB414808380068F2
:100F5000C0F301453E4808380068C0F30277606975
:100F6000800140EA0541207E41EA006040EA0770C6
:100F7000374908390860081D006820F4F851A06A54
:100F8000401E41EA00203249091F0860206800F431
:100F90000010B0F5001F19D1E06FB0F1006F15D14E
:100FA0002B4808380068C0F30365294808380068F2
:100FB000C0F3027760698101208C41EA004040EA79
:100FC000056040EA0770224908390860207800F07F
:100FD0000800082820D11E4808380068C0F30365BF
:100FE0001B4808380068C0F301476069800140EA87
:100FF000074000E02AE040EA0561207F41EA0070F6
:10100000134908390860081D006820F44030E16A7F
:1010100008430F49091F08600D489038006840F0E8
:1010200080500B4990390860FFF72EFB064606E01A
:10103000FFF72AFB801B642801D90320DDE4044864
:1010400090380068C0F340700028F1D00020D4E44C
:101050009038024070B504460D4600260CB90120B8
:1010600070BD5C48006800F00F00A8420ED25948DD
:10107000006820F00F0028435649086008460068C1
:1010800000F00F00A84201D00120E9E7207800F02D
:10109000020002281DD1207800F00400042805D1A8
:1010A0004D48006840F4E0504B490860207800F05B
:1010B0000800082805D14848006840F460404649C7
:1010C00008604548006820F0F000A16808434249E4
:1010D0000860207800F0010090B36068012807D113
:1010E0003D4808380068C0F34040A0B90120B7E788
:1010F0006068022807D1384808380068C0F34060AB
:1011000048B90120ACE7344808380068C0F3400013
:1011100008B90120A4E73048006820F003006168A6
:1011200008432D490860FFF7AFFA064609E0FFF7CC
:10113000ABFA801B41F28831884202D903208FE745
:1011400007E02548006800F00C006168B0EB810FF3
:10115000EDD12048006800F00F00A8420ED91D48CC
:10116000006820F00F0028431A490860084600680C
:1011700000F00F00A84201D0012071E7207800F0B4
:101180000400042807D11448006820F4E050E16806
:10119000084311490860207800F00800082808D1A9
:1011A0000D48006820F46040216940EAC1000A4906
:1011B000086000F05FF808490968C1F30311074AA5
:1011C000515CC840064908600020FFF77BFA002008
:1011D00046E70000003C024008380240DC380008C6
:1011E000100000200F2202600D4A126802F0030274
:1011F00042600B4A126802F0F0028260084A1268EC
:1012000002F4E052C260064A126802F46042D20858
:101210000261044A126802F00F020A60704700007F
:1012200008380240003C0240014800687047000056
:101230001000002000B5FFF7F7FF04490968C1F36B
:101240008221034A515CC84000BD000008380240BA
:10125000EC38000800B5FFF7E7FF04490968C1F35F
:101260004231034A515CC84000BD000008380240CA
:10127000EC3800082DE9F047002400250026A1469F
:101280002548006800F00C0020B1042805D008288B
:101290003AD105E0DFF8849039E0DFF8849036E059
:1012A0001D48001F006800F03F041B48001F006835
:1012B00000F4800078B11A481749091F0968C1F382
:1012C0008811A0FB01700146224600233846FFF733
:1012D00011F805460EE011480F49091F0968C1F3CE
:1012E0008811A0FB01700146224600233846FFF713
:1012F00001F805460848001F0068C0F30140401C83
:101300004600B5FBF6F902E0DFF8109000BF00BF21
:101310004846BDE8F0870000083802400024F40089
:1013200000127A00F8B5044600260CB90120F8BD79
:10133000207800F00100002871D0F848006800F023
:101340000C0004280DD0F548006800F00C000828B7
:1013500013D1F248001F006800F48000B0F5800F40
:101360000BD1EE4808380068C0F34040002869D02F
:101370006068002866D10120D9E700BF6068B0F539
:10138000803F08D1E5480838006840F48030E349E0
:10139000083908602EE0606868B9E04808380068DD
:1013A00020F48030DD49083908600846006820F4E0
:1013B000802008601EE06068B0F5A02F0DD1D748EE
:1013C0000838006840F48020D4490839086008468D
:1013D000006840F4803008600CE0D04808380068AD
:1013E00020F48030CD49083908600846006820F4B0
:1013F0008020086000BF606890B1FFF745F905469E
:1014000006E0FFF741F9401B642801D903208EE76D
:10141000C24808380068C0F340400028F1D011E00D
:10142000FFF732F9054606E0FFF72EF9401B642866
:1014300001D903207BE7B94808380068C0F3404071
:101440000028F1D1207800F00200022869D1B348C9
:10145000006800F00C0058B1B048006800F00C00C3
:1014600008281CD1AD48001F006800F48000B0B906
:10147000AA4808380068C0F3400020B1E06801289D
:1014800001D0012053E7A5480838006820F0F80093
:10149000216940EAC100A1490839086041E0E068DB
:1014A00028B39E480838006840F001009B4908397D
:1014B0000860FFF7E9F8054606E0FFF7E5F8401B8E
:1014C000022801D9032032E7944808380068C0F3A5
:1014D00040000028F1D091480838006820F0F8005A
:1014E000216940EAC1008D490839086019E08B483C
:1014F0000838006820F00100884908390860FFF7C3
:10150000C3F8054606E0FFF7BFF8401B022801D9E3
:1015100003200CE7814808380068C0F34000002829
:10152000F1D1207800F00800082836D16069D0B1E8
:101530007A486C30006840F0010078496C310860EE
:10154000FFF7A2F8054606E0FFF79EF8401B0228C9
:1015500001D90320EBE671486C300068C0F340000D
:101560000028F1D019E06D486C30006820F00100CF
:101570006A496C310860FFF787F8054606E0FFF717
:1015800083F8401B022801D90320D0E663486C3061
:101590000068C0F340000028F1D1207800F004007A
:1015A000042874D15D483830006800F0805080B95C
:1015B00000BF5A483830006840F0805057493831F1
:1015C00008600846006800F08050009000BF00BF2F
:1015D00001265348006800F48070B0B95048006894
:1015E00040F480704E490860FFF74EF8054606E06B
:1015F000FFF74AF8401B642801D9032097E64848C2
:10160000006800F480700028F2D000BFA0680128B4
:1016100008D142486830006840F001003F49683115
:1016200008602DE0A06868B93C486830006820F088
:1016300001003A49683108600846006820F004005B
:1016400008601DE0A06805280DD1344868300068A6
:1016500040F004003149683108600846006840F0F5
:10166000010008600CE02D486830006820F001009F
:101670002A49683108600846006820F004000860C4
:1016800000BFA068A8B1FEF7FFFF054609E02EE005
:10169000FEF7FAFF401B41F28831884201D903204E
:1016A00045E61E4868300068C0F340000028EFD0CF
:1016B00013E0FEF7E9FF054608E0FEF7E5FF401BF3
:1016C00041F28831884201D9032030E6134868305E
:1016D0000068C0F340000028EFD1012E07D10F4869
:1016E0003830006820F080500C4938310860A0691B
:1016F000F0B30A48006800F00C00082868D0A06920
:1017000002284DD105480838006820F08070034950
:1017100008390860FEF7B8FF05460AE008380240BD
:1017200000700040FEF7B0FF401B022801D90320E3
:10173000FDE529480068C0F340600028F2D1D4E9F3
:1017400007010843616A40EA81110122A06AC2EBE5
:10175000500041EA00412C20005D41EA0061302048
:10176000005D41EA00701C49091D0860081F00E087
:1017700030E0006840F08070091F0860FEF784FFC9
:10178000054606E0FEF780FF401B022801D9032032
:10179000CDE511480068C0F340600028F2D019E0A0
:1017A0000D48006820F080700B490860FEF76CFF60
:1017B000054606E0FEF768FF401B022801D903201A
:1017C000B5E505480068C0F340600028F2D101E0AB
:1017D0000120ACE50020AAE50038024070477047C0
:1017E000704710B504460CB9012010BD94F83D00B7
:1017F00028B9002084F83C00204600F00CF80220B4
:1018000084F83D00211D206800F0FCFD012084F8D3
:101810003D000020E9E7704701460868C06840F0D5
:1018200001000B68D86008688068084B00EA030272
:10183000062A08D0B2F5803F05D00868006840F05D
:1018400001000B68186000207047000007000100CD
:10185000704710B5044620680069C0F34000D8B155
:101860002068C068C0F34000B0B16FF0020021688A
:101870000861012020772068806900F0030018B11A
:101880002046FFF7E5FF05E0204600F0BEF82046C1
:1018900000F0BCF80020207720680069C0F38000C9
:1018A000D8B12068C068C0F38000B0B16FF0040008
:1018B00021680861022020772068806900F4407068
:1018C00018B12046FFF7C4FF05E0204600F09DF860
:1018D000204600F09BF80020207720680069C0F3C4
:1018E000C000D8B12068C068C0F3C000B0B16FF0CC
:1018F000080021680861042020772068C06900F092
:10190000030018B12046FFF7A3FF05E0204600F0D2
:101910007CF8204600F07AF80020207720680069E3
:10192000C0F30010D8B12068C068C0F30010B0B197
:101930006FF0100021680861082020772068C069D6
:1019400000F4407018B12046FFF782FF05E0204602
:1019500000F05BF8204600F059F80020207720685E
:10196000006900F0010058B12068C06800F0010073
:1019700030B16FF0010021680861204600F048F89E
:1019800020680069C0F3C01058B12068C068C0F377
:10199000C01030B16FF08000216808612046FFF769
:1019A0001EFF20680069C0F3002058B12068C0689D
:1019B000C0F3C01030B16FF4807021680861204618
:1019C000FFF70CFF20680069C0F3801058B1206851
:1019D000C068C0F3801030B16FF04000216808612A
:1019E000204600F021F820680069C0F3401058B18B
:1019F0002068C068C0F3401030B16FF0200021684B
:101A000008612046FFF7ECFE10BD704770470000EC
:101A100010B5044603492068884201D1FEF73AFE1A
:101A200010BD000000000140704770472DE9F047ED
:101A300004462068C569206806682068876805F044
:101A40000F08B8F1000F0CD105F0200048B106F0E6
:101A5000200030B1206E10B12046216E8847BDE8CD
:101A6000F087B8F1000F71D007F0010018B906F443
:101A70009070002879D005F0010048B106F480701C
:101A800030B1012021680862E06F40F00100E0679A
:101A900005F0020048B107F0010030B102202168D2
:101AA0000862E06F40F00400E06705F0040048B110
:101AB00007F0010030B1042021680862E06F40F0B7
:101AC0000200E06705F0080060B106F0200010B9E0
:101AD00007F0010030B1082021680862E06F40F093
:101AE0000800E067E06F80B305F0200038B106F031
:101AF000200020B1206E10B12046216E8847D4F816
:101B00007C902068806800F04000402802D009F0F6
:101B1000080020B3204600F09DFD2068806800F09A
:101B20004000402817D12068806820F040002168DC
:101B30008860E06E58B11948E16E0865E06EFEF706
:101B40006DFC10B1E06E016D88470DE00DE02046A0
:101B5000FFF76BFF08E02046FFF767FF04E0204631
:101B6000FFF763FF0020E06779E705F0800040B1F0
:101B700006F0800028B1606E10B12046616E884783
:101B80006DE705F0400030B106F0400018B1204686
:101B900000F071FD63E700BF61E700003D2600082B
:101BA00010B504460CB9012010BDA06900B100E0D9
:101BB00000BF606F28B9002084F87000204600F054
:101BC00029F8242060672068006820F0010021685F
:101BD0000860204600F060FD012800D1E4E7606A5B
:101BE00010B1204600F08AFC2068406820F4904044
:101BF000216848602068806820F02A002168886099
:101C00002068006840F0010021680860204600F06C
:101C1000F1FCC9E710B586B00446142101A8FEF70F
:101C2000B3FBB8492068884235D100BFB648006888
:101C300040F40020B44908600846006800F4002021
:101C4000009000BF00BF00BFAF481038006840F0F0
:101C50000400AD49103908600846006800F004002F
:101C6000009000BF00BF4FF440600190022002903E
:101C700000200390032004900820059001A9A348A8
:101C8000FEF7F0FB002205213420FEF79DFD3420F5
:101C9000FEF78AFD33E19E49206888424FD100BF9C
:101CA0009948006840F48010974908600846006829
:101CB00000F48010009000BF00BF00BF92481038B1
:101CC000006840F004009049103908600846006838
:101CD00000F00400009000BF00BF00BF084600688D
:101CE00040F0080008600846006800F00800009016
:101CF00000BF00BF881401900220029000200390D2
:101D0000032004900820059001A98048FEF7AAFB53
:101D100004200190022002900020039003200490F0
:101D20000820059001A97B48FEF79CFB00220521B5
:101D30003520FEF749FD3520FEF736FDDFE0764918
:101D4000206888422DD100BF6F48006840F0804075
:101D50006D4908600846006800F08040009000BFB0
:101D600000BF00BF68481038006840F010006649A6
:101D7000103908600846006800F01000009000BFAD
:101D800000BF4FF4C0700190022002900020039029
:101D9000032004900820059001A96048FEF762FB2B
:101DA000ADE05F492068884234D100BF56480068E2
:101DB00040F40030544908600846006800F40030E0
:101DC000009000BF00BF00BF4F481038006840F0CF
:101DD00008004D49103908600846006800F0080006
:101DE000009000BF00BF6020019002200290002000
:101DF0000390032004900720059001A94548FEF7B1
:101E000031FB002205212620FEF7DEFC2620FEF70E
:101E1000CBFC74E043492068884235D100BF3A4882
:101E2000006840F48020384908600846006800F4E3
:101E30008020009000BF00BF00BF3348103800680A
:101E400040F008003049103908600846006800F08A
:101E50000800009000BF00BF4FF4407001900220C6
:101E6000029000200390032004900720059001A910
:101E70002848FEF7F7FA002205212720FEF7A4FCE8
:101E80002720FEF791FC3AE027492068884236D1A6
:101E900000BF1D48001D006840F020001A49091DC0
:101EA00008600846006800F02000009000BF00BFF6
:101EB00000BF15481038006840F040001249103942
:101EC00008600846006800F04000009000BF00BFB6
:101ED0004FF48440019002200290002003900320E0
:101EE00004900820059001A91048FEF7BBFA0022D3
:101EF00005214720FEF768FC4720FEF755FC06B099
:101F000010BD0000004C0040403802400008024074
:101F100000500040000C02400078004000100240D9
:101F200000440040004800400014014000180240F6
:101F3000704700BFFEE7000000B585B014220649D7
:101F40006846FEF708FA0021684600F020FE0349C3
:101F5000086005B000BD0000C8380008000000207F
:101F600000B587B0142102A8FEF70EFA00BF57484B
:101F7000006840F01000554908600846006800F00D
:101F80001000019000BF00BF00BF0846006840F08D
:101F9000800008600846006800F08000019000BFE3
:101FA00000BF00BF0846006840F002000860084615
:101FB000006800F00200019000BF00BF00BF0846AB
:101FC000006840F0400008600846006800F04000EB
:101FD000019000BF00BF00BF0846006840F0080045
:101FE00008600846006800F00800019000BF00BFCC
:101FF00000BF0846006840F004000860084600681A
:1020000000F00400019000BF00BF00BF0846006858
:1020100040F0010008600846006800F001000190EF
:1020200000BF00BF00223C212948FEF727FB002209
:102030004EF281012748FEF721FB00224FF4007188
:102040002548FEF71BFB3C20029001200390002056
:102050000490059002A91E48FEF704FA4EF2810092
:1020600002900120039000200490059002A91948D5
:10207000FEF7F8F90220029018480390002004901F
:1020800002A91748FEF7EEF94FF47060029013486A
:1020900003900020049002A90E48FEF7E3F94FF4E4
:1020A000007002900120039000200490059002A986
:1020B0000948FEF7D7F9002205211720FEF784FB17
:1020C0001720FEF771FB07B000BD0000303802405A
:1020D00000100240000402400008024000001110FD
:1020E0000018024010B50D480D4908604FF4165015
:1020F000486000210A488160C16001610C21416192
:1021000000218161C16101620020054948620846E1
:10211000FFF746FD08B1FEF780F910BD004C004006
:102120007400002010B50D480D4908604FF416509A
:10213000486000210A488160C16001610C21416151
:1021400000218161C16101620020054948620846A1
:10215000FFF726FD08B1FEF760F910BD0050004002
:10216000F400002010B50D480D4908604FF41650DA
:10217000486000210A488160C16001610C21416111
:1021800000218161C1610162002005494862084661
:10219000FFF706FD08B1FEF740F910BD00780040DA
:1021A0007401002010B50D480D4908604FF4E1306E
:1021B000486000210A488160C16001610C214161D1
:1021C00000218161C1610162002005494862084621
:1021D000FFF7E6FC08B1FEF720F910BD004400400F
:1021E000F401002010B50D480D4908604FF4E130AE
:1021F000486000210A488160C16001610C21416191
:1022000000218161C16101620020054948620846E0
:10221000FFF7C6FC08B1FEF700F910BD004800400A
:102220007402002010B50D480D4908604FF4165097
:10223000486000210A488160C16001610C21416150
:1022400000218161C16101620020054948620846A0
:10225000FFF7A6FC08B1FEF7E0F810BD001401403E
:10226000F402002000BFFEE77047704700BF012066
:1022700000F07CFCFBE7000010B500BF502072B6F8
:1022800080F31188BFF34F8FBFF36F8F62B600BF2B
:1022900001F0F0F918B14FF080500449086000BF18
:1022A000002080F3118800BF10BD000004ED00E0A5
:1022B00000B5B7B034212AA8FEF766F8142125A886
:1022C000FEF762F8902101A8FEF75EF800BF2E48E5
:1022D000006840F080502C4908600846006800F013
:1022E0008050009000BF00BF00BF2848006840F445
:1022F0004040264908600846006800F440400090CD
:1023000000BF00BF01202A904FF4A0202B90022094
:10231000309041052AA8C16104210162D82141629F
:10232000022181620421C162FEF7FCFF08B1FEF7C1
:1023300074F8FEF79BFA08B1FEF76FF80F202590AE
:1023400002202690002027904FF4A05028904FF4B0
:1023500080502990072125A8FEF77CFE08B1FEF7E2
:102360005CF84FF4FC5001900020139014901590ED
:1023700016901790189001A8FEF7C0FA08B1FEF762
:102380004CF837B000BD00004038024000700040FB
:102390001448006840F47000124908601248006850
:1023A00040F001001049086000200F490831086022
:1023B0000D4800680D4908400B4908600C48091D8C
:1023C0000860081F006820F48020091F08600020B2
:1023D00005490C3108604FF00060024980390860FF
:1023E0007047000088ED00E000380240FFFFF6FE75
:1023F0001030002410B50248FFF72BFA10BD000082
:102400007403002010B50268294B98420ED0B0F139
:10241000804F0BD0274B984208D0274B984205D0CD
:10242000264B984202D0264B984203D122F07002EC
:102430004B681A431E4B984220D0B0F1804F1DD0FC
:102440001C4B98421AD01C4B984217D01B4B9842F9
:1024500014D01B4B984211D01A4B98420ED01A4BF5
:1024600098420BD0194B984208D0194B984205D08E
:10247000184B984202D0184B984203D122F4407274
:10248000CB681A4322F080034C6943EA04020260DD
:102490008B68C3620B688362054B984202D0084B7D
:1024A000984201D10B6903630123436110BD000011
:1024B000000001400004004000080040000C004003
:1024C0000004014000400140004401400048014038
:1024D00000180040001C00400020004010B50248D9
:1024E000FFF7A4FA10BD00007400002010B50248E8
:1024F000FFF79CFA10BD0000F400002090F82410B3
:1025000001F0010139B10168496821F40031826AA2
:1025100011430268516090F8241001F00201022971
:1025200007D10168496821F48031C26A1143026809
:10253000516090F8241001F00401042907D10168CA
:10254000496821F48021026B11430268516090F8C0
:10255000241001F00801082907D10168496821F415
:102560000041426B11430268516090F8241001F061
:102570001001102907D10168896821F48051826B0C
:1025800011430268916090F8241001F02001202985
:1025900007D10168896821F40051C26B11430268B8
:1025A000916090F8241001F04001402913D1016896
:1025B000496821F48011026C114302685160016C7A
:1025C000B1F5801F07D10168496821F4C001426C50
:1025D00011430268516090F8241001F080018029B5
:1025E00007D10168496821F40021826C1143026817
:1025F0005160704738B504460020E067FEF744F8A4
:1026000005462068006800F0080008280CD16FF02B
:102610007E402B4600224FF400110090204600F02F
:102620000DFA08B1032038BD20206067A06700BF05
:10263000002084F8700000BF00BFF4E770B50546C5
:10264000AC6B0020A4F85A00A4F852002046FFF713
:10265000ECF970BD0168096821F49071026811609D
:102660000168896821F00101026891602021816779
:1026700000210166704710B504462068006820F00C
:1026800040002168086020206067002060662046C6
:10269000FFF74EFC10BD00002DE9F0470446002670
:1026A000B1462169A068084361690843E16940EACD
:1026B000010720680068D549084038432168086050
:1026C0002068406820F44050E16808432168486071
:1026D000A769206A07432068806820F43060384387
:1026E0002168886000BFCA492068884216D1C9485D
:1026F000006800F0030030B1012808D0022804D09F
:10270000032808D105E0012507E0022505E004259E
:1027100003E0082501E0102500BFC9E0BE4920689C
:10272000884216D1BB48006800F00C0030B1042884
:1027300008D0082804D00C2808D105E0002507E0BF
:10274000022505E0042503E0082501E0102500BF6F
:10275000AEE0B2492068884216D1AE48006800F069
:10276000300030B1102808D0202804D0302808D1FB
:1027700005E0002507E0022505E0042503E0082523
:1027800001E0102500BF93E0A5492068884216D1DA
:10279000A048006800F0C00030B1402808D0802870
:1027A00004D0C02808D105E0002507E0022505E097
:1027B000042503E0082501E0102500BF78E09949D1
:1027C0002068884219D19348006800F4407048B1ED
:1027D000B0F5807F0AD0B0F5007F05D0B0F5407F1E
:1027E00008D105E0002507E0022505E0042503E007
:1027F000082501E0102500BF5AE08B492068884277
:1028000019D18448006800F4406048B1B0F5806F89
:102810000AD0B0F5006F05D0B0F5406F08D105E0E3
:10282000012507E0022505E0042503E0082501E075
:10283000102500BF3CE07D492068884219D17548C9
:10284000006800F4405048B1B0F5805F0AD0B0F5A0
:10285000005F05D0B0F5405F08D105E0002507E036
:10286000022505E0042503E0082501E0102500BF4E
:102870001EE06F492068884219D16648006800F45C
:10288000404048B1B0F5804F0AD0B0F5004F05D0B8
:10289000B0F5404F08D105E0002507E0022505E02E
:1028A000042503E0082501E0102500BF00E0102505
:1028B00000BFE069B0F5004F57D1042D28D005DCEA
:1028C0004DB1012D11D0022D36D118E0082D29D09F
:1028D000102D31D131E0FEF7ADFC4000616800EB16
:1028E0005100B0FBF1F086B22AE0FEF7B3FC4000E5
:1028F000616800EB5100B0FBF1F086B220E04D4979
:10290000606801EB50006168B0FBF1F086B217E03F
:10291000FEF7B0FC4000616800EB5100B0FBF1F045
:1029200086B20DE04FF48031606801EB50006168C1
:10293000B0FBF1F086B203E000BF4FF0010900BF29
:1029400000BF102E0ED3B6F5803F0BD24FF6F070BD
:1029500006EA0008C6F3420048EA00082068C0F80A
:102960000C804DE04FF001094AE0042D26D005DC33
:102970004DB1012D10D0022D33D116E0082D26D0F7
:10298000102D2ED12EE0FEF755FC616800EB5100B2
:10299000B0FBF1F086B228E0FEF75CFC616800EB6A
:1029A0005100B0FBF1F086B21FE02349606801EBF3
:1029B00050006168B0FBF1F086B216E0FEF75AFCF9
:1029C000616800EB5100B0FBF1F086B20DE04FF40E
:1029D0000041606801EB50006168B0FBF1F086B225
:1029E00003E000BF4FF0010900BF00BF102E05D368
:1029F000B6F5803F02D22068C66001E04FF00109C1
:102A00000020206660664846BDE8F087F369FFEF66
:102A1000001001409038024000440040004800404F
:102A2000004C00400050004000140140007800407D
:102A3000007C00400048E8010024F4002DE9F0414A
:102A400004460D4617469846069E1FE0701CE8B1E6
:102A5000FDF71AFEA0EB0800B04200D8B6B9206816
:102A6000006820F4D070216808602068806820F039
:102A700001002168886020206067A06700BF0020F7
:102A800084F8700000BF0320BDE8F0812068C069B1
:102A90002840A84201D1012000E00020B842D5D052
:102AA0000020F1E710B50248FEF7C0FF10BD00009E
:102AB000F401002010B50248FEF7B8FF10BD000079
:102AC0007402002010B50248FEF7B0FF10BD0000F0
:102AD000F402002000BFFEE702480068C0F30220B5
:102AE000704700000CED00E010B5002804DB0A0779
:102AF000130E054A135406E00A07140E034A00F0A9
:102B00000F031B1FD45410BD00E400E018ED00E0DB
:102B100002E008C8121F08C1002AFAD170477047A6
:102B2000002001E001C1121F002AFBD17047FDF710
:102B3000BDFDFFF7BDFBFFF713FAFFF753FBFFF7F0
:102B4000D1FAFFF7EFFAFFF70DFBFFF76BFBFFF78B
:102B500029FBFFF7F1F900F015F800BFFEE7014689
:102B60000020842901D0CA1C1044704770B5044667
:102B700025460DB1294600E00121084600F0F8FB8A
:102B8000002070BD10B500F023FC002010BDFEB584
:102B900004460D46B4F90800FFF7E1FF064602A817
:102BA000CDE90060238A9AB22B46D4E9001000F0E8
:102BB00031FD012801D00020FEBD0298FCE7000095
:102BC0002DE9F04105460E461C4807681C48006880
:102BD000001D00F0D3FA50B91948006890F82C1085
:102BE0000120884017490968814316480160681C24
:102BF00038B936B112480168091D134800F0FCFAD3
:102C00001AE07C190E4800684460BC4207D20C48A8
:102C10000168091D0D48006800F0D4FA0CE008486E
:102C20000168091D0A48006800F0CCFA09480068EC
:102C3000844201D207480460BDE8F08128000020EA
:102C4000140000202C000020900400201C00002014
:102C5000180000204400002010B5044600F0D8FA07
:102C600023480068401C224908602248006840B997
:102C7000204804600846006801280DD100F01EF9C4
:102C80000AE01D48006838B91A480068C06AE16A5D
:102C9000884201D81748046018480068401C17494A
:102CA000086094F82C1001208840154909680843F1
:102CB00013490860E16A01EB8101124A02EB8100CD
:102CC000211D00F099FA00F0D1FA0B48006868B1B4
:102CD00008480068C06AE16A884207D24FF0805015
:102CE00009490860BFF34F8FBFF36F8F10BD00001D
:102CF00024000020140000203000002040000020AC
:102D00002C000020B403002004ED00E010B516E014
:102D100000F07EFA0C48C068C468201D00F02EFA4E
:102D20000A480068401E0949086009480068401EBA
:102D30000749086000F09AFA204600F00BF80448B2
:102D400000680028E4D110BD7C040020240000208D
:102D50002000002010B50446206B00F0A7FA2046A2
:102D600000F0A4FA10BD000030B54FF470531748BE
:102D700000F007042CB1C01D20F00700134C041B09
:102D80001B1B0246124C22600024114D6C60D018AF
:102D9000083820F007000F4C206000240D4D2D68EE
:102DA0006C600C4D2D682C601146441A4C60094C27
:102DB00024680C60084D4C682C60084D4C682C60F1
:102DC0004FF00044064D2C6030BD0000A4040020EC
:102DD0005000002058000020600000205C0000200F
:102DE0006400002000BFFFF791FF0648006801283B
:102DF000F9D94FF0805004490860BFF34F8FBFF3FB
:102E00006F8FF0E7B403002004ED00E02DE9FF5FD1
:102E100081460F469246DDE90E6B109CAAF1010037
:102E2000216B01EB800828F0070808F0070008B9BB
:102E3000012000E0002060B900BF502072B680F38E
:102E40001188BFF34F8FBFF36F8F62B600BF00BF13
:102E5000FEE7002507E0795D04F134004155785D17
:102E600000B902E06D1C102DF5D300BF00214320F6
:102E70000155072E00D30626E66266640020A06492
:102E8000201D00F09CF904F1180000F098F924616D
:102E9000C6F10700A06164620020E06484F850007D
:102EA00049464046039A00F053F92060BBF1000FF9
:102EB00001D0CBF80040BDE8FF9F000010B5002412
:102EC00007E004EB84010F4A02EB810000F06AF98D
:102ED000641C072CF5D30C4800F064F90B4800F093
:102EE00061F90B4800F05EF90A4800F05BF90A4806
:102EF00000F058F904480949086004480849086086
:102F000010BD0000B4030020400400205404002041
:102F1000680400207C040020900400201800002099
:102F20001C00002010B50146164800E00068036848
:102F30008B42FBD30246436813448B4204D143685F
:102F40004C682344436001460A464B6813440468B6
:102F5000A34211D10C4C03682468A34208D04B68EB
:102F60000468646823444B6003681B680B6005E0D9
:102F7000054B1B680B6001E003680B60884200D0C2
:102F8000016010BD50000020580000200A49096867
:102F9000096809B9012100E0002121B14FF0FF319A
:102FA000064A116006E004490968C968C868034A0E
:102FB00041681160704700001800002044000020A4
:102FC00010480068401C08B9012000E0002060B9EA
:102FD00000BF502072B680F31188BFF34F8FBFF34C
:102FE0006F8F62B600BF00BFFEE700BF502072B611
:102FF00080F31188BFF34F8FBFF36F8F62B600BFAE
:1030000000BFFEE7680000202DE9F04104464FF0C4
:10301000000800F025FA4948006808B9FFF7A4FE47
:1030200047480068204000286FD1E4B1083404F01C
:103030000700C0B104F00700C0F10800044404F028
:10304000070008B9012000E0002060B900BF50204F
:1030500072B680F31188BFF34F8FBFF36F8F62B6E4
:1030600000BF00BFFEE7002C4FD036480068844206
:103070004BD8354E3046056801E02E462D6868680D
:10308000A04202D228680028F7D12C480068854267
:103090003BD0306800F10808286830606868001B81
:1030A00010281BD92F1907F0070008B9012000E0EC
:1030B000002060B900BF502072B680F31188BFF3C2
:1030C0004F8FBFF36F8F62B600BF00BFFEE7686827
:1030D000001B78606C603846FFF724FF1949686868
:1030E0000968081A174908600846006817490968FE
:1030F000884203D213480068144908601049686880
:103100000968084368600020286000F059FB08F057
:10311000070008B9012000E0002060B900BF50207E
:1031200072B680F31188BFF34F8FBFF36F8F62B613
:1031300000BF00BFFEE74046BDE8F0815800002018
:10314000640000205C00002050000020600000208F
:10315000001F4FF080730360001F21F00103036024
:10316000001F054B036014380260001F6FF002035C
:103170000360203870470000C12F000801460A692B
:10318000D1E901309860D1E9010358605068884264
:1031900001D188685060002008611068401E1060EE
:1031A0001068704700F1080141604FF0FF31816005
:1031B00000F10801C1600161002101607047002138
:1031C0000161704710B502460B685C1C0CB91069B0
:1031D00007E002F1080000E04068446824689C426F
:1031E000FAD944684C604C68A160886041600A610B
:1031F0001468641C146010BD42684A6093688B6058
:10320000936859609160086103685B1C03607047B4
:1032100000BF502072B680F31188BFF34F8FBFF309
:103220006F8F62B600BF0F480068401C0D490860F0
:1032300008460068012814D10B480068C0B208B9DC
:10324000012000E0002060B900BF502072B680F37A
:103250001188BFF34F8FBFF36F8F62B600BF00BFFF
:10326000FEE770476800002004ED00E00E480068AB
:1032700060B900BF502072B680F31188BFF34F8F42
:10328000BFF36F8F62B600BF00BFFEE7064800685D
:10329000401E054908600846006820B9002080F3F8
:1032A000118800BF00BF70476800002070B5064657
:1032B0003546002E43D0083D2C46214960680968F8
:1032C000084008B1012000E0002060B900BF502094
:1032D00072B680F31188BFF34F8FBFF36F8F62B662
:1032E00000BF00BFFEE7206808B9012000E0002011
:1032F00060B900BF502072B680F31188BFF34F8FC2
:10330000BFF36F8F62B600BF00BFFEE70C49606875
:103310000968084098B1206888B909496068096857
:103320008843606000F09CF80649606809680844BA
:10333000044908602046FFF7F5FD00F041FA70BD32
:10334000640000205C00002000204FF0E0210861B4
:103350008861064800684FF47A71B0FBF1F0401EB6
:103360004FF0E021486107200861704710000020FD
:1033700070B504460025E4B11348006808B901207F
:1033800000E0002060B900BF502072B680F31188C1
:10339000BFF34F8FBFF36F8F62B600BF00BFFEE772
:1033A00000F05EF800212046FFF70AFC00F008FA62
:1033B00005463DB94FF0805004490860BFF34F8F78
:1033C000BFF36F8F70BD00004C00002004ED00E0E3
:1033D0001CB51C4800210B468022CDE900101AA123
:1033E0001B4800F017F90446012C17D100BF5020EC
:1033F00072B680F31188BFF34F8FBFF36F8F62B641
:1034000000BF4FF0FF3013490860012012490860E7
:1034100000201249086000F073F812E0601C08B147
:10342000012000E0002060B900BF502072B680F398
:103430001188BFF34F8FBFF36F8F62B600BF00BF1D
:10344000FEE71CBD4800002049444C450000000038
:10345000E52D000844000020300000202800002056
:1034600002480068401C0149086070474C00002079
:103470001E48006818B101201D49086034E0002092
:103480001B4908601B480068B0FA80F0C0F11F01BA
:1034900001EB8100184A52F8200008B1012000E039
:1034A000002060B900BF502072B680F31188BFF3CE
:1034B0004F8FBFF36F8F62B600BF00BFFEE701EB17
:1034C00081020D4B03EB820042685268426000F1BA
:1034D00008024368934202D14268526842604268DF
:1034E000D268064B1A6000BF704700004C000020F5
:1034F000380000202C000020B4030020140000201D
:103500001CB53E49084600780190FF200A4610701D
:103510000846007800909DF8000000F0F0009DF84B
:103520000020904201D1012000E0002060B900BFDE
:10353000502072B680F31188BFF34F8FBFF36F8FA7
:1035400062B600BF00BFFEE79DF8000000F050002B
:103550002B4A107007202B4A106009E029480068A8
:10356000401E284A10609DF800004006000E0090A2
:103570009DF8000000F080008028EFD0214800680E
:10358000C0F10700042801D1012000E0002060B94B
:1035900000BF502072B680F31188BFF34F8FBFF386
:1035A0006F8F62B600BF00BFFEE7164800680002DA
:1035B000144A10601046008800F4E06010600F4A62
:1035C000019810701048006840F470000E490860BF
:1035D0000846006840F070400860FFF7B5FE002024
:1035E0000A490860FCF736FE0948006840F0404090
:1035F00007490860FCF71AFE00201CBD00E400E04B
:103600006C0000207000002020ED00E06800002029
:1036100034EF00E02DE9FF4F85B08046894617461C
:10362000DDE912ABB800FFF7EFFC064656B15420B7
:10363000FFF7EAFC04460CB1266304E03046FFF7CE
:1036400035FE00E000247CB10020CDE900ABCDE9DF
:1036500002403A4649464046089BFFF7D7FB2046C2
:10366000FFF7FAFA012501E04FF0FF35284609B0CF
:10367000BDE8F08F2DE9F0414FF0000845480068A3
:10368000002879D144480068451C4348056025BBA3
:1036900042480068006808B9012000E0002060B9D5
:1036A00000BF502072B680F31188BFF34F8FBFF375
:1036B0006F8F62B600BF00BFFEE738480768384822
:1036C0000068364908603648076036480068401C84
:1036D00034490860FFF75AFC00BF33480068854250
:1036E0003CD300BF2D480068006808B9012000E005
:1036F000002020B14FF0FF302B4908602DE0274813
:103700000068C068C4686668B54202D22648066090
:1037100023E0201DFFF732FDA06A18B104F1180064
:10372000FFF72CFD94F82C10012088401F490968F0
:1037300008431E490860E16A01EB81011C4A02EB63
:103740008100211DFFF758FD1A49E06A0968C96A1E
:103750008842C7D34FF00108C4E700BF154800688E
:10376000C06A00EB8000124951F82000012801D9FD
:103770004FF0010805E0FFE70F480068401C0E49C4
:1037800008600E48006808B14FF001084046BDE8E7
:10379000F08100004C0000202800002018000020CC
:1037A0001C0000203C000020440000202C000020D1
:1037B000B403002014000020340000203800002052
:1037C00070B5002400263748006860B900BF50205B
:1037D00072B680F31188BFF34F8FBFF36F8F62B65D
:1037E00000BF00BFFEE7FFF713FD2E480068401E34
:1037F0002C4908600846006800284FD12A48006814
:1038000000284BD024E02948C068C46804F118009F
:10381000FFF7B4FC201DFFF7B1FC94F82C10012039
:10382000884023490968084321490860E16A01EB9F
:103830008101204A02EB8100211DFFF7DDFC1E49BA
:10384000E06A0968C96A884202D301201B490860FE
:103850001648006808B9012000E000200028D2D0F6
:103860000CB1FFF793FB1648056865B100BFFFF781
:1038700001FF10B10120114908606D1E002DF6D125
:1038800000200F4908600D48006838B10126300754
:103890000C490860BFF34F8FBFF36F8FFFF7E6FC53
:1038A000304670BD4C000020240000206804002039
:1038B0002C000020B4030020140000203800002059
:1038C0003400002004ED00E0F43800086D22000808
:1038D0000000000000000000800000000000000068
:1038E00000000000010203040607080900000000B0
:1038F0000102030464656661756C745461736B0046
:10390000203900080000002074000000102B00087F
:10391000943900087400002034440000202B000873
:103920000000000000000000100000000100000086
:103930000024F4000000000000000000000000006F
:103940000000000000000000000000000000000077
:103950000000000000000000000000000000000067
:103960000000000000000000000000000000000057
:103970000000000000000000000000000000000047
:103980000000000000000000AAAAAAAA000000008F
:043990000000000033
:04000005080001F9F5
:00000001FF
