:020000040800F2
:10000000A00900200D02000817190008B316000807
:100010001519000819030008691F000800000000F6
:100020000000000000000000000000001B19000894
:100030001B03000800000000191900081D19000822
:1000400027020008270200082702000827020008EC
:1000500027020008270200082702000827020008DC
:10006000270200081D0300082303000827020008D8
:1000700027020008270200082702000827020008BC
:1000800027020008270200082702000827020008AC
:100090002702000827020008270200082903000899
:1000A000270200082702000827020008270200088C
:1000B000270200082702000827020008270200087C
:1000C000270200082702000827020008270200086C
:1000D000270200082702000827020008511F000815
:1000E000270200082702000827020008270200084C
:1000F000270200082702000827020008270200083C
:10010000270200082702000827020008270200082B
:100110001D1A0008291A00082702000827020008F3
:10012000270200082702000827020008270200080B
:1001300027020008270200082702000827020008FB
:1001400027020008270200082702000827020008EB
:100150002702000827020008270200085D1F000888
:1001600027020008270200082702000827020008CB
:1001700027020008270200082702000800000000EC
:1001800027020008270200082702000827020008AB
:10019000270200082702000827020008270200089B
:1001A000270200082702000827020008270200088B
:1001B000270200082702000827020008270200087B
:1001C000270200082702000800000000270200089C
:1001D000270200082702000827020008270200085B
:1001E000270200082702000827020008270200084B
:1001F0002702000827020008DFF80CD000F07AF888
:100200000048004721210008A00900200648804737
:1002100006480047FEE7FEE7FEE7FEE7FEE7FEE7EB
:10022000FEE7FEE7FEE7FEE7C9190008F90100084E
:100230002DE9F05F0546002092469B46884606461B
:10024000814640241BE0284641464746224600F0AE
:1002500041F853465A46C01A914110D311461846E8
:10026000224600F028F82D1A67EB01084F46224677
:100270000120002100F01FF817EB00094E41201E5D
:10028000A4F10104DFDC484631462A464346BDE876
:10029000F09FD2B201E000F8012B491EFBD270475B
:1002A0000022F6E710B513460A4604461946FFF742
:1002B000F0FF204610BD202A04DB203A00FA02F1AC
:1002C000002070479140C2F1200320FA03F3194344
:1002D00090407047202A04DB203A21FA02F00021E6
:1002E000704721FA02F3D040C2F120029140084346
:1002F00019467047064C074D06E0E06840F00103E0
:1003000094E8070098471034AC42F6D3FFF778FF23
:1003100080220008A0220008FEE77047082000F0B5
:100320004BB8102000F048B8202010B500F044F879
:10033000BDE81040402000F03FB8704790F83510FD
:10034000022903D08021416501207047052180F8F2
:1003500035100068016821F001010160002070473C
:1003600070B5044600F02CF90546601C02D0044824
:100370000078044400F024F9401BA042FAD370BD79
:100380001000002010B50B4C08280146084805D085
:10039000102905D0202906D0402908D1802103E06A
:1003A0004FF4804100E0012100F0FEF8206910BD0B
:1003B0000004024000100240044910B50A680242DD
:1003C00002D00860FFF7DEFF10BD0000143C0140C2
:1003D0002DE9F84FDFF89CE100224FF001084FF0C3
:1003E000030B4FF00F0A00BF0B6808FA02F423401A
:1003F000A34271D14D68022D01D0122D0FD1D50825
:100400000E69570700EB8505A9462D6AFF0E0AFA0B
:1004100007FCBE4025EA0C052E43C9F820600F7981
:10042000550006680BFA05FC07F0030726EA0C06E0
:10043000AF40374307604E68012E05D0022E03D02F
:10044000112E01D0122E0ED18668CF6826EA0C0636
:10045000AF403743876046680F79A643C7F300175C
:10046000974037434760C4688E6824EA0C04AE4066
:100470002643C6604C68E40075D53F4C256845F4BA
:1004800080452560246822F00306950704F4804423
:1004900000943A4C2D0F2644D6F80848DFF8E0C007
:1004A0000AFA05F7604524EA070401D100272EE087
:1004B000344FB84201D1012729E0334FB84201D16E
:1004C000022724E0314FB84201D103271FE0304F0B
:1004D000B84202D104271AE045E02E4FB84201D1BC
:1004E000052714E02C4FB84201D106270FE02B4F0F
:1004F000B84201D107270AE0294FB84201D10827A5
:1005000005E0284FB84201D1092700E00A27AF4093
:1005100027437546C6F808784E68DEF80040F603B3
:1005200024EA030400D51C43124E2C60361D4D688E
:100530003468AD0324EA030400D51C430D4F346036
:1005400008374D683C68ED0224EA030400D51C43DB
:10055000084D3C600C354E682C68B60224EA030452
:1005600000D51C432C60521C102AFFF43DAFBDE89F
:10057000F88F0000003C0140443802400030014048
:10058000000002400004024000080240000C02404B
:10059000001002400014024000180240001C0240FB
:1005A0000020024000240240426931EA020200D1E8
:1005B0000904816170470AB1816170470904FBE752
:1005C00001488068704700001000002002488168E0
:1005D000027811448160704710000020032010B59C
:1005E00000F06EF8002000F005F800F023F800207D
:1005F00010BD000070B50D4D04464FF47A700C4AE2
:1006000029781268B0FBF1F0B2FBF0F000F0C2FD07
:1006100048B9102C07D200222146501E00F030F8B5
:1006200000206C6070BD012070BD00001000002033
:100630001C0000200A4808B5016841F080510160A3
:10064000006800F0805000900548001D016841F4EA
:1006500080410160006800F48040009008BD000007
:1006600040380240002809DB410900F01F028900E0
:10067000012001F1E0219040C1F800017047000025
:100680000E4BF0B41B680D46C3F30223C3F10706FB
:10069000042E00D90426191D072901D2002300E0E9
:1006A000DB1E012404FA06F19C40491E2940641E09
:1006B000994014402143F0BC01F057BC0CED00E020
:1006C000064900F0070210B54FF6FF040868044B16
:1006D000204040EA02201843086010BD0CED00E005
:1006E0000000FA051848F8B5016841F08051016032
:1006F0000068164C00F080500090206840F4803074
:100700002060FFF75DFF4FF47A76054605E000BFF5
:10071000FFF756FF401BB0420FD86068C003F7D503
:10072000206840F400302060FFF74AFF054606E0ED
:10073000FFF746FF401BB04201D90320F8BD6068B7
:100740008003F5D50020F8BD40380240007000401D
:100750002DE9F84F04460078DFF824944FF00006A6
:100760003746C0070ED0D9F8001021F40001C9F8AF
:100770000010D9F80010626B1143C9F80010606BCB
:1007800000B90126FE4D2068843500030ED5E16BCB
:10079000286820F4401008432860E06BB0F5801F03
:1007A00001D010B102E0012600E0012720684FF4DB
:1007B000800BC0020CD5216C286820F4400008434F
:1007C0002860206C584501D1012601E000B90127BD
:1007D0002068C10100D50126800666D5E84838307A
:1007E000016841F0805101600068DFF898A300F0D3
:1007F00080500090DAF8001041F48071CAF80010BF
:10080000FFF7DEFE804605E0FFF7DAFEA0EB08000A
:1008100064287DD8DAF80000C005F5D5DFF86083DC
:1008200008F16808D8F8000010F440702AD0218E32
:1008300001F44071814225D0D8F80010D8F800208A
:1008400021F4407142F48032C8F80020D8F800202A
:1008500022F48032C8F80020C8F80010D8F8000050
:10086000C0070FD0FFF7ACFE824607E0FFF7A8FEF7
:10087000A0EB0A0141F288308142CAD8D8F80000C2
:100880008007F3D5206BC0F3012103297ED0D9F86E
:10089000001021F4F811C9F80010228ED8F80010C9
:1008A000C2F30B021143C8F800102078C00607D528
:1008B000286820F0807028602868A16B08432860B1
:1008C0002188AF488830490405D5626E016821F45B
:1008D0004031114301602188090405D5A26E0168E9
:1008E00021F44021114301602168C90305D5E26E5E
:1008F000016821F44011114301602168890305D585
:10090000226F016821F4400111430160217800E069
:1009100034E1490605D5626C016821F003011143F9
:1009200001602178090605D5A26C016821F00C014F
:10093000114301602188C90505D5E26C016821F0E9
:100940003001114301602188890505D5226D0168B8
:1009500021F0C001114301602188490505D5626D70
:10096000016821F44071114301602188090505D512
:10097000A26D016821F44061114301602188C9041E
:1009800007D5E26D016821F4405100E05FE01143BA
:1009900001602188890405D5226E016821F4404157
:1009A000114301602168490205D5A26F016821F059
:1009B00080611143016021684FF0006A890209D506
:1009C000E26F016821F0006111430160E16F514560
:1009D00000D1012721680A0700D50127490305D561
:1009E000626F016821F040711143016021680902C2
:1009F00006D5D4F88020016821F0805111430160B0
:100A00002168490106D5D4F88420016821F00051FD
:100A1000114301602068000106D5D4F888102868C9
:100A200020F00070084328602068C00006D5D4F884
:100A30008C10286820F0806008432860DFF8489117
:100A4000012E0ED02068B0F1007F0AD08FE04F4A0F
:100A5000D9F80030104023F4F8120243C9F80020FE
:100A60001BE7D9F800004E4620F08060C9F800006E
:100A7000FFF7A6FD804605E0FFF7A2FDA0EB08000A
:100A800064287BD830680001F6D421783C487C305B
:100A9000C90712D0616B81B9237A62680168D0F806
:100AA00000C09201C1F3014142EA0142CCF303616B
:100AB00042EA016141EA0371016021680A0303D53A
:100AC000E26BB2F5801F04D0C9021AD5216C5945DA
:100AD00017D16368016894F80CC002689B01C1F3E8
:100AE000014143EA0141C2F3027241EA0C6141EA69
:100AF000027101602968626A21F01F01521E1143D0
:100B000029602168C90110D5238A62680168D0F87C
:100B100000C09201C1F3036142EA034242EA01626A
:100B2000CCF3027142EA01710160216889010CD5A0
:100B30006168228A237B94F808C0890141EA024156
:100B400041EA036141EA0C7101603168B04641F04D
:100B500080613160FFF734FD064604E0FFF730FDA9
:100B6000801B64280AD8D8F800000001F6D5E7B346
:100B7000D9F800004E4620F0805009E07BE00000EC
:100B8000083802400070004000380240FFFCFF0FB0
:100B9000C9F80000FFF714FD074604E0FFF710FD59
:100BA000C01B642867D83068C0438000F6D5216830
:100BB00035480A0301D5E26B1AB1C9021DD5216C73
:100BC000D9B963690168277E02689B01C1F30141BD
:100BD00043EA0143C2F3027143EA076242EA017148
:100BE000016029686FF0FF0300E04BE0A26A21F486
:100BF000F85103EB0222114329602168890212D5C2
:100C0000E16F51450FD1238C626901680768920139
:100C1000C1F3036142EA034242EA0162C7F302718F
:100C200042EA017101602178090716D561690268FD
:100C3000D0F800C08B01277FC2F30362CCF30141DF
:100C400043EA014141EA026141EA07710160286813
:100C5000E16A20F4403008432860306840F080505A
:100C60003060FFF7ADFC044608E000BFFFF7A8FCCA
:100C7000001B642802D90320BDE8F88F3068C04308
:100C80008000F3D40020F7E7883802402DE9F047D0
:100C900005000F4663D0444E306800F00F00B842A4
:100CA00009D2306820F00F0038433060306800F01F
:100CB0000F00B84253D128683C4C810712D5400739
:100CC00003D5206840F4E05020602878000703D561
:100CD000206840F460402060A968206820F0F0009F
:100CE000084320602878C0072AD03049686808394E
:100CF000012810D00968022810D0890700292EDAAF
:100D0000216821F0030101432160FFF759FC80466F
:100D100041F288390DE009688903EFE78901EDE7C1
:100D2000FFF74EFCA0EB0801494502D90320BDE8BE
:100D3000F0876868216801F00C01B1EB800FEFD1FA
:100D4000306800F00F00B8420BD9306820F00F0077
:100D500038433060306800F00F00B84201D0012005
:100D6000E5E72878400705D5E968206820F4E050D9
:100D7000084320602878000706D52869216821F4F7
:100D8000604141EAC000206000F036F82168084A5E
:100D9000C1F30311515CC840064908600020FFF709
:100DA00029FC0020C3E70000003C02400838024054
:100DB000682200081C0000200449054809680068F2
:100DC000044AC1F38221515CC84070470838024090
:100DD0001C000020782200080449054809680068C2
:100DE000044AC1F34231515CC840704708380240A0
:100DF0001C00002078220008154910B51548096824
:100E000011F00C0213D04110042A0FD0082A0ED181
:100E10000F4C241F2268236802F03F025B0207D5B3
:100E20002068C0F38810A0FB010106E0084610BD51
:100E30002168C1F38811A1FB00010023FFF7F8F935
:100E40002168C1F30141491C4900B0FBF1F010BD1C
:100E5000083802400024F4002DE9F84F05004FF057
:100E600000076ED02878DFF82093A9F1040AC007A4
:100E7000AAF104044CD0D9F800104846C1F381010E
:100E8000012908D00068C0F3810002280AD1DAF8ED
:100E90000000400206D52068800339D56868002824
:100EA000DFD035E06868B0F5803F0BD010B1B0F509
:100EB000A02F11D0206820F480302060206820F41A
:100EC000802002E0206840F480302060686890B1A3
:100ED000FFF776FB06460AE0206840F48020206099
:100EE000F0E700BFFFF76CFB801B642872D8206816
:100EF0008003F7D50CE0FFF763FB064605E000BF73
:100F0000FFF75EFB801B6428F0D820688003F7D4CD
:100F10002878800742D5D9F80010484611F00C0F08
:100F200008D00068C0F3810002280BD1DAF8000075
:100F3000400207D42068800718D5E868012800D14E
:100F400014E01EE1E8680028206817D040F0010096
:100F50002060FFF735FB064605E000BFFFF730FBDA
:100F6000801B0228C2D820688007F7D5286921682D
:100F700021F0F80141EAC00020600FE020F00100FC
:100F80002060FFF71DFB064605E000BFFFF718FBDA
:100F9000801B02281ED820688007F7D42878000715
:100FA00029D5794869696C3000298046016812D0DA
:100FB00041F001010160FFF703FB064605E000BFB9
:100FC000FFF7FEFA801B022804D8D8F8000080073B
:100FD000F6D510E089E021F001010160FFF7F0FA99
:100FE000064604E0FFF7ECFA801B02287DD8D8F80B
:100FF00000008007F6D4287840076BD5DFF8888199
:1010000008F13808D8F80000C0000BD4D8F8001058
:1010100041F08051C8F80010D8F80000012700F016
:101020008050009059480168C90512D40168834670
:1010300041F480710160FFF7C3FA064605E000BF86
:10104000FFF7BEFA801B64284FD8DBF80000C0050C
:10105000F6D54D4EA868683601280AD008B1052893
:1010600011D0306820F001003060306820F00400BA
:1010700002E0306840F001003060A868A0B1FFF7DE
:101080009FFA83460CE0306840F004003060F0E7DF
:10109000FFF796FAA0EB0B0141F28830814268D845
:1010A00030688007F4D50EE0FFF78AFA834607E040
:1010B000FFF786FAA0EB0B0141F28830814258D845
:1010C00030688007F4D42FB1D8F8001021F0805197
:1010D000C8F80010A869E0B3D9F80010C1F3810185
:1010E00002294ED00228206800E042E020F0807003
:1010F000206003D0FFF764FA05463DE0FFF760FA91
:10110000064604E0FFF75CFA801B022831D820680D
:101110008001F7D4D5E90921DFF874C0D5E90706C5
:1011200095F830304F0895F82C1030430CEB0745FC
:1011300045EA8212104340EA016040EA0370CAF8AF
:101140000000206840F080702060FFF739FA054603
:1011500005E014E0FFF734FA401B022809D82068A4
:101160008001F7D50BE000BFFFF72AFA401B0228E9
:1011700002D90320BDE8F88F20688001F4D4002054
:10118000F8E70120F6E70000083802400070004050
:101190000000FFFF401EB0F1807F10B501D3012099
:1011A00010BD4FF0E02460610F21601700F0DDFEFC
:1011B0000020A0610721216110BD70472DE9F04199
:1011C000026804460025D0691168936810F00F0F7B
:1011D0005BD003F0010601F49077374369D0C7076D
:1011E00007D0CF0505D501271762E26F42F0010253
:1011F000E267820708D5DA0706D0276802223A623A
:10120000E26F42F00402E267420708D5DA0706D02F
:10121000236804221A62E26F42F00202E2670207C8
:101220000AD501F02002324306D0236808221A6250
:10123000E26F42F00802E267E26F002A32D08006D5
:1012400005D5880603D5216E09B120468847216857
:10125000E06F8968490601D4000725D5204600F0D3
:1012600075FC20688168490619D5816821F0400124
:101270008160E06E98B11A490165E06EFFF75EF893
:1012800000280FD0E06E016D06E0830611D58B06B5
:101290000FD5216E12E02046BDE8F04108472046F8
:1012A000FFF78BFFBDE8F0812046FFF786FFE5677B
:1012B000F8E7030605D50B0603D5616E0029EAD1D0
:1012C000F0E74006EED54806ECD51368202120460D
:1012D00023F0400313606167656600F0E9F9E1E718
:1012E000391B000810B5040002D0606F10B107E090
:1012F000012010BD002084F87000204600F026F880
:10130000242060672068016821F001010160204607
:1013100000F086FC0128ECD0606A10B1204600F095
:1013200089FB2068416821F4904141602068816810
:1013300021F02A0181602068016841F0010101600B
:101340002046BDE8104000F0D9BB00002DE9F04177
:1013500086B0074614216846FEF7A2FF62490025C1
:101360003B680224DFF884C110395F4A03266048D5
:10137000082763451CD1136843F4002313601268E7
:1013800002F4002205920A6842F004020A60096829
:1013900001F004010591B1028DE8F2006946FFF702
:1013A00017F8002234201146FFF76AF9342031E0A3
:1013B000DFF840C1DFF84081634530D1136843F462
:1013C00080131360126802F4801205920A6842F0DA
:1013D00004020A600A6802F0040205920A6842F0F8
:1013E00008020A60096801F0080105914FF4805174
:1013F0008DE8F2006946FEF7EBFF042069468DE8B0
:10140000F1004046FEF7E4FF002235201146FFF7C9
:1014100037F93520FFF726F906B0BDE8F0813748E7
:10142000834218D1106840F080401060106800F0CE
:1014300080400590086840F0100008600868694620
:1014400000F0100005904FF4C0708DE8F1002C48BA
:10145000FEF7BEFFE0E72B48834221D1106840F43D
:1014600080201060106800F480200590086840F02B
:10147000080008600868072100F008000590CDE921
:1014800003614FF4407069468DE831004046FEF735
:101490009FFF002227201146FFF7F2F82720B9E727
:1014A00019488342B8D11048001D026842F020025A
:1014B0000260006800F020000590086840F04000DD
:1014C00008600868694600F0400005904FF48440C9
:1014D0008DE8F1000D48FEF77BFF00224720114602
:1014E000FFF7CEF8472095E740380240004C004017
:1014F0000008024000500040000C0240007800400C
:101500000010024000480040001401400018024052
:1015100070B5836F202B4BD1B9B1B2B190F8703058
:10152000012B45D08368012680F870600024416556
:1015300035030466AB42A0F85820A0F85A204FF0BB
:10154000FF0107D1026912B126E0012070BD40F20F
:10155000FF1121E04FF07F02E3B1B3F1805F1ED0B5
:10156000A0F85C402221C467816701688A6842F064
:1015700001028A608168A94201D10169B1B10D49B6
:10158000016680F870400068016841F49071016064
:10159000002070BD036933B9A0F85C10E2E701696F
:1015A00009B13F21F8E7A0F85C20DBE70249E7E753
:1015B000022070BDC71B00086D1B000870B51D49D7
:1015C000054600681C4C884216D16078401C60704B
:1015D000607820F080006070184E60780122311829
:1015E00006F54070FFF794FF607801223118491E1C
:1015F00006F5906000F028F811492868884218D153
:101600002079401C2071207920F0800020710D4D40
:1016100020790122291805F52070FFF779FF20793C
:101620000122291805F58070BDE87040491E00F0C0
:101630000BB870BD004C00400400002020000020CA
:10164000004800402002002070B5436F202B28D1B5
:10165000B1B1AAB190F87030012B22D08668012474
:1016600080F87040002343662125C164B6F5805F91
:10167000A0F85020A0F85220C367456702D003E0CD
:10168000012070BD016951B10749416680F8703091
:101690000068016841F080010160002070BD0349CD
:1016A000F3E7022070BD0000B51E0008751E00089B
:1016B0007047FEE72DE9F04186B014216846FEF739
:1016C000EFFD4348016841F010010160016801F03D
:1016D00010010591016841F080010160016801F08D
:1016E00080010591016841F002010160016801F08B
:1016F00002010591016841F040010160016801F0BB
:1017000040010591016841F008010160016801F0A4
:1017100008010591016841F001010160016801F0D3
:1017200001010591016841F0040101600068002297
:10173000284F3C2100F0040005903846FEF73BFF9F
:10174000DFF894804EF28106002231464046FEF7D3
:1017500032FF0024694601253C200090CDE9015468
:1017600038460394FEF734FE00966946CDE90154ED
:1017700040460394FEF72CFE184D0A206946029459
:10178000CDE900051648FEF723FE70206946CDE935
:10179000000514480294FEF71BFE002209201146A2
:1017A000FEF76EFF0920FEF75DFF00220A201146BA
:1017B000FEF766FF0A20FEF755FF002217201146AC
:1017C000FEF75EFF1720FEF74DFF06B0BDE8F08183
:1017D00030380240001002400004024000001110A6
:1017E00000180240000C02400D48002110B50B4CBF
:1017F0000C224FF416530460C0E90131C160C0E906
:1018000004128161C16101624162FFF76BFD002832
:1018100003D0BDE81040FEF790BD10BD004C004065
:10182000200300200D48002110B50B4C0C224FF472
:1018300016530460C0E90131C160C0E9041281613E
:10184000C16101624162FFF74DFD002803D0BDE890
:101850001040FEF772BD10BD00500040A0030020F4
:101860000D48002110B50B4C0C224FF416530460A8
:10187000C0E90131C160C0E904128161C161016246
:101880004162FFF72FFD002803D0BDE81040FEF7AE
:1018900054BD10BD00780040200400200D480021F8
:1018A00010B50B4C0C224FF4E1330460C0E9013158
:1018B000C160C0E904128161C16101624162FFF748
:1018C00011FD002803D0BDE81040FEF736BD10BD65
:1018D00000480040A00400200D48002110B50B4C2A
:1018E0000C224FF416530460C0E90131C160C0E915
:1018F00004128161C16101624162FFF7F3FC0028BB
:1019000003D0BDE81040FEF718BD10BD0014014023
:1019100020050020FEE7704770477047FEF756BE6F
:1019200030B5B7B0342124A8FEF7BAFC142131A891
:10193000FEF7B6FC90216846FEF7B2FC204801682D
:1019400041F080510160006800F0805036901D48E1
:10195000016821F4404141F48041016000680123A5
:101960000225990500F4404036900420CDE92A5123
:101970002CA960224FF4A02481E825002F9024A8F0
:10198000CDE92434FFF768FAFEF7ACFEE802002444
:101990000F21CDE93340359431A8CDE9311503212C
:1019A000FFF774F94FF4F8501494139415941694A7
:1019B000179400906846FEF7CBFE37B030BD0000AC
:1019C0004038024000700040104A30B5104814689A
:1019D00000210F4B44F470041460083305680D4A6D
:1019E0000D4C45F00105056019600368051D1340A5
:1019F000074A03600C322C600568E305034C25F4AC
:101A000080250560803C1160236030BD88ED00E0DA
:101A100000380240FFFFF6FE103000240148FFF7B7
:101A2000CDBB0000200300200148FFF7C7BB00002A
:101A3000A003002090F82410C90706D00168836A2B
:101A40004A6822F400321A434A6090F82410890749
:101A500006D50168C36A4A6822F480321A434A6094
:101A600090F82410490706D50168036B4A6822F4F0
:101A700080221A434A6090F82410090706D50168AD
:101A8000436B4A6822F400421A434A6090F82410DB
:101A9000C90606D50168836B8A6822F480521A430E
:101AA0008A6090F82410890606D50168C36B8A689D
:101AB00022F400521A438A6090F82410490611D586
:101AC0000168036C4A6822F480121A434A60016C70
:101AD000B1F5801F06D10168436C4A6822F4C00248
:101AE0001A434A6090F82410090606D50168826CF2
:101AF000486820F4002010434860704738B500253E
:101B00000446C567FEF75CFD0346206800680007D1
:101B10000BD56FF07E400090002220464FF400115C
:101B200000F0E6F908B1032038BD2020606784F892
:101B30007050A067002038BD10B5806B0021A0F860
:101B40005A10A0F85210FFF738FB10BD10B501680D
:101B5000202200230C6824F490740C6001688C68C7
:101B600024F001048C608267036610BD10B5816F9C
:101B7000B0F85C202229016804D0886940F0080090
:101B8000886110BD496A436D11401980416D891CFF
:101B90004165B0F85A10491EA0F85A10B0F85A1012
:101BA0000029EED10168202200230C6824F49074EF
:101BB0000C6001688C6824F001048C608267036605
:101BC000FFF7FCFC10BD10B5816FB0F85C20222936
:101BD000016804D0886940F00800886110BD496A36
:101BE000436D11401970416D491C4165B0F85A10A0
:101BF000491EA0F85A10B0F85A100029EED1016819
:101C0000202200230C6824F490740C6001688C6816
:101C100024F001048C6082670366FFF7CFFC10BDDF
:101C20002DE9F04104468068DFF818C2864F23682A
:101C3000D4E90452E16928431E6800250A43834918
:101C4000104306EA0C0606431E604FF4004220686B
:101C5000E668436823F44053334343602368A6692E
:101C6000206AD3F808C030432CF4306606439E60E7
:101C70002068B8420AD1086810F0030052D0012849
:101C80007BD002287AD003286ED186E0704B984230
:101C90000AD1086810F00C0079D004287BD00828FD
:101CA00077D00C2860D178E06A4B98420AD1086856
:101CB00010F030006BD010286DD0202869D030286B
:101CC00052D16AE0644B98420AD1086810F0C00013
:101CD0005DD040285FD080285BD0C02844D15CE034
:101CE0005E4B98420DD1086810F440704FD0B0F5AB
:101CF000807F50D0B0F5007F4BD0B0F5407F33D11E
:101D00004BE0574B98420FD1086810F4406009D05F
:101D1000B0F5806F3FD0B0F5006F3AD0B0F5406FAE
:101D200022D13AE0012120E04E4B98420DD10868C3
:101D300010F440502BD0B0F5805F2CD0B0F5005F90
:101D400027D0B0F5405F0FD127E0474B98420BD129
:101D5000086810F440401AD0B0F5804F1BD0904274
:101D600017D0B0F5404F18D01021E0694FF6EF764C
:101D7000904238D109295DD202E00CE009E006E08A
:101D8000DFE801F00D1027582A5858582D0000217F
:101D9000EBE70221E9E70421E7E70821E5E7FFF7A0
:101DA0000BF801E0FFF718F80146D4F804004900E9
:101DB00001EB5001B1FBF0F080B2A0F11001B14293
:101DC00038D84FF6F0732168C0F342021840104330
:101DD00024E026496068EBE7FFF70EF8E4E7606867
:101DE0004FF48031E4E7092924D2DFE801F0050847
:101DF00019231C2323231F00FEF7DEFF01E0FEF75B
:101E0000EBFF0146D4F8040001EB5001B1FBF0F008
:101E100080B2A0F11001B1420CD82168C8600AE07C
:101E200013496068F0E7FEF7E7FFEAE7606802EB56
:101E30005001EBE701250020206660662846BDE8DA
:101E4000F0810000F369FFEF00100140903802407C
:101E50000044004000480040004C0040005000405A
:101E60000014014000780040007C00400048E80178
:101E70000024F400416F212910D1B0F8521071B143
:101E8000C16C02680988C1F308019162C16C891CA8
:101E9000C164B0F85210491EA0F852107047016892
:101EA0000A6822F080020A600068016841F040017F
:101EB00001607047416F21290ED1B0F8521061B115
:101EC000C16C026809789162C16C491CC164B0F8A8
:101ED0005210491EA0F85210704701680A6822F09B
:101EE00080020A600068016841F0400101607047AB
:101EF0002DE9F041984617460E460446069D08E037
:101F0000681C06D0FEF75CFBA0EB0800A8420BD8CB
:101F100055B12068C06936EA000017D00020B842E9
:101F2000EED00020BDE8F0812168202000220B685F
:101F300023F4D0730B6021688B6823F001038B605E
:101F40006067A067032084F87020EBE70120E6E7D4
:101F50000148FFF733B90000A00400200148FFF753
:101F60002DB9000020050020FEE7090700284FEAF0
:101F7000116104DB00F1E02080F80014704700F0EC
:101F80000F0000F1E02080F8141D704702E008C83F
:101F9000121F08C1002AFAD170477047002001E0E3
:101FA00001C1121F002AFBD1704700002DE9F0414A
:101FB000144B0C460D68144E144F022D19680A4636
:101FC00001F101010CD0032D17D1357805F1010C79
:101FD00086F800C07D5D85548AB21960014609E02B
:101FE000357805F1010C86F800C07D5D8554052229
:101FF000196007A10848FFF727FB4FF0FF3020606A
:10200000BDE8F08100000020040000202000002036
:102010002053544D00000000200300202DE9F0471C
:10202000DFF880800D46204E8146204C204F23E073
:10203000217818F801103C290FD02968012922D0F5
:10204000227818F802003E2822D0022925D008DD87
:102050002946484600F0F0F806E0012129600020FA
:1020600030602078401C2070306820F080003060A4
:10207000207820F080002070217838788142D7D1F4
:102080002868BDE8F0872946484600F08FF8EBE75E
:1020900029464846FFF78AFFE6E74FF0FF30286001
:1020A000E2E70000200000200000002004000020E3
:1020B0000500002010B5164C617801221548014436
:1020C00000F59060FFF724FAA1780122124801443C
:1020D00000F50070FFF71CFAE17801220E4880300D
:1020E000014400F50070FFF713FA217901220B4833
:1020F000014400F54070FFF70BFA61790748BDE82D
:10210000104080300144012200F5C070FFF700BA92
:1021100004000020200000202001002020020020D8
:1021200088B0FEF75BFAFFF7FBFBFFF7C3FAFFF798
:10213000B5FBFFF759FBFFF775FBFFF791FBFFF7C7
:10214000CBFBFFF7B7FF164805220690002007904B
:1021500010A11448FFF778FA3220FEF701F9124C6B
:1021600007A9069A6846904778B9606940F004006C
:102170006061606940F020006061606940F01000BB
:102180006061606940F0080060613220FEF7E8F8A5
:10219000E6E700007061756C6F206A6F726765001A
:1021A0001D200008A004002000100240084A1378F7
:1021B000084AD25C4C2A05D04E2A07D103220A6075
:1021C00000F00AB802220A6000F01EB87047000052
:1021D0000400002020000020084BF0B503240C6010
:1021E00019683C22064C425422788E1C054F551C1F
:1021F0002570491CBA5C42541E60F0BD00000020EE
:102200000400002020000020084BF0B502240C60E0
:1022100019683C22064C425422788E1C054F551CEE
:102220002570491CBA5C42541E60F0BD00000020BD
:10223000040000202000002030B5096803290BD1DC
:10224000064B074A1978074D4C1C1C700D44116849
:102250004B1C2C784454136030BD00000400002057
:10226000000000202000002000000000000000000E
:10227000010203040607080900000000010203042C
:10228000A022000800000020200000008C1F000891
:10229000C022000820000020800900009C1F0008C8
:1022A000000000000000000000000000000000002E
:1022B0000100000010000000000000000024F400F5
:04000005080001F9F5
:00000001FF
